:020000040800F2
:100000004004002045010008E9120008EB12000836
:10001000EF120008F3120008F712000800000000B9
:10002000000000000000000000000000FB120008BB
:10003000FD12000800000000FF1200080113000874
:100040005F0100085F0100085F0100085F01000810
:100050005F0100085F0100085F0100085F01000800
:100060005F0100085F0100085F0100085F010008F0
:100070005F0100085F0100085F0100085F010008E0
:100080005F0100085F0100085F0100085F010008D0
:100090005F0100085F0100085F0100085F010008C0
:1000A0005F0100085F0100085F0100085F010008B0
:1000B0005F0100085F0100085F0100085F010008A0
:1000C0005F0100085F0100085F0100085F01000890
:1000D0005F0100085F0100085F0100085F01000880
:1000E0005F0100085F0100085F0100085F01000870
:1000F0005F0100085F0100085F0100085F01000860
:100100005F0100085F0100085F0100085F0100084F
:100110005F0100085F0100085F0100085F0100083F
:100120005F0100085F0100085F0100085F0100082F
:10013000DFF80CD001F028FC00480047A1120008AD
:10014000400400200648804706480047FEE7FEE7D7
:10015000FEE7FEE7FEE7FEE7FEE7FEE7FEE7FEE777
:1001600047020008310100080CB500200190009002
:100170006C48006840F480306A49086000BF6948F4
:10018000006800F4003000900198401C0190009835
:1001900018B90198B0F5A06FF1D16248006800F479
:1001A000003010B10120009001E000200090009884
:1001B000012843D15C48006840F010005A490860AB
:1001C0000846006820F0030008600846006840F018
:1001D0000200086053484068524948600846406839
:1001E00048600846406840F48060486008464068BF
:1001F00020F47C1048600846406840F4E8104860ED
:100200000846006840F08070086000BF45480068FC
:1002100000F000700028F9D04248406820F0030048
:10022000404948600846406840F00200486000BF0E
:100230003C48406800F00C000828F9D10CBD10B50E
:10024000FFF792FF10BD10B53648006840F001007E
:1002500034490860084640683449084031494860DC
:1002600008460068324908402E4908600846006880
:1002700020F4802008600846406820F4FE004860B2
:100280004FF41F008860FFF7DAFF4FF00060294944
:10029000086010BD10B5002100200022214B5B68D2
:1002A00003F00C0121B1042906D0082928D107E068
:1002B000214B224C236027E01F4B204C236023E07E
:1002C000184B5B6803F47010164B5B6803F48032C4
:1002D000022303EB904022B9194B4343174C236090
:1002E0000DE0104B5B6803F4003323B1144B434320
:1002F000124C236003E0104B4343104C236003E097
:100300000D4B0E4C236000BF00BF064B5B68C3F370
:1003100003130C4CE15C094B1B68CB40074C23607A
:1003200010BD000000100240002002400000FFF855
:10033000FFFFF6FE08ED00E000127A00000000204A
:1003400000093D000400002010B50446FA4884422C
:1003500008D10121401500F055FD0021601500F085
:1003600051FD17E0F548844208D10121001500F045
:1003700049FD0021201500F045FD0BE0F0488442C6
:1003800008D10121C80300F03DFD00214FF40040D9
:1003900000F038FD10BD30B5024600200023506843
:1003A000E84C20400D790C6844EA05242043506055
:1003B0009068E54C2040D1E902542C434D7944EA41
:1003C000450420439060D06A20F470000C7C641EC9
:1003D000E4B2234340EA0350D06230BD0021016003
:1003E000017141718160C16001210174704721B1C7
:1003F000826842F00102826003E0826822F001021A
:100400008260704721B1826842F48072826003E0AA
:10041000826822F480728260704710B50023CBB2EC
:100420001AB144681C43446002E044689C43446041
:1004300010BD816841F008018160704701460020CD
:100440008A6802F008020AB1012000E0002070472B
:10045000816841F0040181607047014600208A688C
:1004600002F004020AB1012000E00020704721B12F
:10047000826842F4A002826003E0826822F4A00253
:1004800082607047014600208A6802F480020AB147
:10049000012000E00020704710B50A46002100232B
:1004A000416821F46041531E41EA4331416010BD6F
:1004B00021B1426842F40062426003E0426822F4E3
:1004C000006242607047F0B504460D4600200021EE
:1004D000092D11DDE068A5F10A0606EB460707269F
:1004E00006FA07F18843A5F10A0606EB460603FA69
:1004F00006F10843E0600CE0206905EB450707269C
:1005000006FA07F1884305EB450603FA06F10843AE
:100510002061072A0FDA606B561E06EB86071F263E
:1005200006FA07F18843561E06EB860605FA06F121
:100530000843606322E00D2A0FDA206BD61F06EB1A
:1005400086071F2606FA07F18843D61F06EB8606A4
:1005500005FA06F10843206310E0E06AA2F10D06F7
:1005600006EB86071F2606FA07F18843A2F10D065F
:1005700006EB860605FA06F10843E062F0BD21B1FC
:10058000826842F48012826003E0826822F4801262
:10059000826070470146C86C80B2704766484C3034
:1005A0000068704721B1426842F48062426003E013
:1005B000426822F480624260704721B1426842F48E
:1005C0008052426003E0426822F4805242607047E9
:1005D0000A460021816821F4E0411143816070479F
:1005E00021B1826842F40042826003E0826822F412
:1005F00000428260704721B1826842F40212826038
:1006000003E0826822F402128260704701460020F3
:100610008A6802F400120AB1012000E0002070474D
:10062000F0B504461546002000220026092911DDF8
:10063000E068A1F10A0707EB470C072707FA0CF25D
:100640009043A1F10A0707EB470703FA07F21043AB
:10065000E0600CE0206901EB410C072707FA0CF27F
:10066000904301EB410703FA07F210432061A06BAE
:10067000C0F30156EF1C06F1010CA7EB0C0707EBCA
:10068000870C1F2707FA0CF29043EF1C06F1010CB0
:10069000A7EB0C0707EB870701FA07F21043A063EB
:1006A000F0BD10B50A4600210023816B21F44011F2
:1006B000531E41EA0351816310BD08B50023009326
:1006C0000090009B0B440093009B1A6008BD08B586
:1006D000024600200090009201F12800009B18447F
:1006E00000900098006880B208BD0A460021416869
:1006F000164B194011434160704741628262704756
:100700000A460021416821F01F01114341607047F2
:1007100040B109490831096841F40001064A08322C
:10072000116007E004490831096821F40001024A18
:100730000832116070470000002401400028014089
:10074000003C0140FFFEF0FFFDF7F1FFFFFD3FFF22
:100750000246002013680B400BB1012000E000208E
:100760007047CA430260704770B5024600200023FC
:1007700000240B125568CEB205EA060415681D4028
:1007800015B10CB1012000E0002070BD00220A125A
:10079000D34303607047000010B50446CC48844240
:1007A00008D10121042000F02DFB0021042000F0DD
:1007B00029FB46E0C748844208D10121082000F007
:1007C00021FB0021082000F01DFB3AE0C2488442D2
:1007D00008D10121102000F015FB0021102000F0AD
:1007E00011FB2EE0BD48844208D10121202000F0F9
:1007F00009FB0021202000F005FB22E0B8488442DC
:1008000008D10121402000F0FDFA0021402000F035
:10081000F9FA16E0B348844208D10121802000F0A3
:10082000F1FA0021802000F0EDFA0AE0AE4884429F
:1008300007D10121801500F0E5FA0021A01500F094
:10084000E1FA10BD10B50121084600F0DBFA0021E5
:10085000012000F0D7FA10BD2DE9F0410246002535
:100860000026002000230024002791F803C00CF08C
:100870000F0591F803C00CF0100CBCF1000F03D071
:1008800091F802C04CEA050591F800C0BCF1000FD8
:1008900031D0146800202BE04FF0010C0CFA00F36B
:1008A000B1F800C00CEA03069E4220D183004FF04D
:1008B0000F0C0CFA03F7BC4305FA03FC4CEA0404E2
:1008C00091F803C0BCF1280F06D14FF0010C0CFACF
:1008D00000FCC2F814C00AE091F803C0BCF1480F54
:1008E00005D14FF0010C0CFA00FCC2F810C0401CFE
:1008F0000828D1D31460B1F800C0BCF1FF0F34DD7B
:10090000546800202EE000F1080C4FF0010808FAAE
:100910000CF3B1F800C00CEA03069E4221D183001B
:100920004FF00F0C0CFA03F7BC4305FA03FC4CEA3A
:10093000040491F803C0BCF1280F05D100F1080CA4
:1009400008FA0CF8C2F8148091F803C0BCF1480F03
:1009500007D100F1080C4FF0010808FA0CF8C2F8B2
:100960001080401C0828CED35460BDE8F0814FF6BB
:10097000FF710180022181700421C170704702461D
:10098000002093680B400BB1012000E0002070476D
:100990000146886880B2704702460020D3680B4049
:1009A0000BB1012000E0002070470146C86880B20A
:1009B000704701617047416170470AB1016100E011
:1009C00041617047C16070474FF480320A438261D1
:1009D0008161826182698269704702460020434BCF
:1009E00018684FF68073184040EA021008433F4BE6
:1009F000186070473E49C8617047F0B50A46002349
:100A000000240021002500F00046B6F1004F02D17D
:100A1000364EF16901E0354E7168C0F3034583B28B
:100A200000F44016B6F5401F08D121F070612F4E3A
:100A3000766826F070662D4F7E6012E000F4801616
:100A4000B6F5801F06D1032606FA05F4A14341F04E
:100A5000706106E0460D360103FA06F6B14341F037
:100A6000706122B1460D360103FA06F6314300F0FB
:100A70000046B6F1004F02D11C4EF16101E01B4E61
:100A80007160F0BD30B500228B071C0F0F2303FAF5
:100A900004F2164B08338C1053F824309343134C54
:100AA00008348D1044F8253023468C1053F8243038
:100AB0008C07240F00FA04F423430C4C08348D10E7
:100AC00044F8253030BD0A49DC3108607047000029
:100AD00000080140000C01400010014000140140DA
:100AE00000180140001C01400020014000000140AE
:100AF00000002042DF48006840F00100DD49086046
:100B000008464068DC490840DA4948600846006801
:100B1000DA490840D74908600846006820F4802078
:100B200008600846406820F4FE0048604FF41F004B
:100B300088607047CF49096821F48031CD4A11603F
:100B40001146096821F480211160B0F5803F03D07F
:100B5000B0F5802F0ED106E0C649096841F4803116
:100B6000C44A116007E0C349096841F4A021C14AA1
:100B7000116000E000BF00BF704710B501460022C1
:100B8000002300204A11012A02D1BA4C236806E052
:100B9000022A02D1B74C236A01E0B64C636A01F025
:100BA0001F02012494401C400CB1012000E00020F1
:100BB00010BD38B5002000900024002500BF312072
:100BC000FFF7DBFF05460098401C00900098B0F549
:100BD000A06F01D0002DF2D03120FFF7CEFF08B179
:100BE000012400E00024204638BD01460020A14A2F
:100BF000106820F0F80040EAC10010607047A0497A
:100C000008607047024600209A4B586820F47C1018
:100C100042EA01031843974B5860704798490866A9
:100C2000704701460020934A506820F003000843B3
:100C3000506070478F48406800F00C0070470146D4
:100C400000208C4A506820F0F00008435060704744
:100C500001460020874A506820F4E0600843506055
:100C6000704701460020834A506820F4605040EAF3
:100C7000C1005060704729B17E4A527A02437D4BD1
:100C80005A7204E07B4A527A82437A4B5A72704716
:100C90007B49D8310860704701460020754A50688A
:100CA00020F440400843506070470021714A2032D0
:100CB0001170704A82F82010012802D004280AD14D
:100CC00004E001216B4A2032117005E00521694AD8
:100CD0002032117000E000BF00BF70476949086012
:100CE00070476449096A0143624A11627047654965
:100CF00044390860704730B50021002200240023E9
:100D00005C4D6D6805F00C0121B1042905D008295E
:100D100023D105E05C4D056022E05B4D05601FE0DE
:100D2000544D6D6805F47012524D6D6805F48034B1
:100D3000022505EB92421CB9544D554305600BE06A
:100D40004C4D6D6805F400351DB1504D554305609F
:100D500002E04D4D5543056002E04B4D056000BF7C
:100D600000BF444D6D6805F0F0010909484D6B5C0A
:100D70000568DD4045603F4D6D6805F4E061090A96
:100D8000434D6B5C4568DD4085603A4D6D6805F408
:100D90006051C90A3E4D6B5C4568DD40C560354D0C
:100DA0006D6805F44041890B3A4D6B5CC568B5FB35
:100DB000F3F5056130BD29B12E4A526902432D4B2E
:100DC0005A6104E02B4A526982432A4B5A617047A8
:100DD00029B1284A92690243264B9A6104E0254AC8
:100DE00092698243234B9A61704729B1214AD269A3
:100DF0000243204BDA6104E01E4AD26982431D4B54
:100E0000DA61704729B11B4AD2680243194BDA6094
:100E100004E0184AD2688243164BDA60704729B161
:100E2000144A12690243134B1A6104E0114A126911
:100E30008243104B1A61704712494039086070476D
:100E40000F49C86470470B49C87170470948406A28
:100E500040F0807007494862704701460020054A0B
:100E600092680A400AB1012000E000207047014961
:100E700088727047001002400000FFF8FFFFF6FE86
:100E8000000042428004424200127A0000093D0004
:100E9000140000202400002010B50446FB488442C2
:100EA00009D101218803FFF7ADFF00214FF48040F5
:100EB000FFF7A8FF32E0F648844209D10121480437
:100EC000FFF7ADFF00214FF40030FFF7A8FF25E04A
:100ED000F048844209D101218804FFF7A0FF0021D6
:100EE0004FF48020FFF79BFF18E0EB48844209D1C4
:100EF0000121C804FFF793FF00214FF40020FFF702
:100F00008EFF0BE0E548844208D101210805FFF778
:100F100086FF00214FF48010FFF781FF10BD2DE9FF
:100F2000F04786B005460E460024A24600BFA14603
:100F30000027B08900B100BF2F462C8A4CF6FF7005
:100F40000440F08804432C82AC894EF6F310044030
:100F5000B08831890843718908430443AC81AC8A65
:100F60004FF6FF400440B0890443AC8201A8FFF76C
:100F7000C2FEC648874202D1DDF810A001E0DDF8CC
:100F80000CA0A88900F4004040B10AEBCA0000EBB5
:100F90000A1031684900B0FBF1F807E00AEBCA001B
:100FA00000EB0A1031688900B0FBF1F86420B8FB4F
:100FB000F0F004012009642101FB1089A88900F4E4
:100FC000004040B1322000EBC900B0FBF1F000F06E
:100FD0000700044308E0322000EB09106421B0FB55
:100FE000F1F000F00F0004432C8106B0BDE8F0875B
:100FF0004FF41651016000218180C18001810C21D4
:10100000418100218181704710B502460020108A7D
:101010004FF2FF0318400B884C8823438C882343EE
:10102000CC8823431843108210BD002101804180E9
:101030008180C180704721B1828942F4005282814F
:1010400004E082894DF6FF731A4082817047F0B543
:101050000346002400260025002040F66A17B94206
:1010600000D100BF1846C1F3421401F01F0601274A
:1010700007FA06F5012C01D10C3004E0022C01D155
:10108000103000E014301AB107682F43076002E007
:101090000768AF430760F0BD1AB1838A0B438382B0
:1010A00002E0838A8B4383827047028A4FF6F07393
:1010B0001A400282028A0A430282704782894FF2F2
:1010C000FF731A40828182890A438281704721B16D
:1010D000828942F00202828104E082894FF6FD7328
:1010E0001A4082817047028A4FF6DF731A400282EB
:1010F000028A0A430282704721B1028A42F4804286
:10110000028204E0028A4BF6FF731A4002827047A3
:10111000C1F308028280704701468888C0F3080046
:101120007047818941F0010181817047028BD2B201
:101130000283028B42EA012202837047028B02F48F
:101140007F420283028B0A430283704721B1828A65
:1011500042F02002828204E0828A4FF6DF731A4056
:101160008282704721B1828A42F01002828204E0BA
:10117000828A4FF6EF731A408282704721B1828AC9
:1011800042F00802828204E0828A4FF6F7731A4026
:101190008282704721B1828942F40042828103E059
:1011A0008289C2F30E028281704721B1828A42F4A1
:1011B0000062828204E0828A4FF2FF731A408282C8
:1011C0007047828A4FF6FB731A408282828A0A43F2
:1011D0008282704721B1828A42F00202828204E058
:1011E000828A4FF6FD731A408282704702460020C1
:1011F000B1F5007F00D100BF13880B400BB1012077
:1012000000E00020704701F40072B2F5007F00D1C9
:1012100000BFCA430280704770B502460024002315
:101220000025002040F66A16B14200D100BFC1F38C
:10123000421501F01F03012606FA03F3012D02D126
:101240009689334006E0022D02D1168A334001E030
:10125000968A33400C12012606FA04F416883440AC
:1012600013B10CB1012000E0002070BD10B50022C8
:10127000002340F66A14A14200D100BF0A120124E3
:101280009440A3B2DC43048010BD0000003801404C
:101290000044004000480040004C00400050004026
:1012A00000F0A8F900F02EF800F01AFA00F0E2F8C9
:1012B0000EE00A21012000F039F9064908600846CD
:1012C000016805A000F072FB4FF47A7000F0DAF9C3
:1012D000EFE7000028000020CDC1C8C0CAAAB6C8E8
:1012E000A3BA25640D0A0000704700BFFEE700BFE7
:1012F000FEE700BFFEE700BFFEE77047704770479C
:101300007047000000B585B001210420FFF760FDA3
:1013100001218803FFF75CFD4FF40070ADF8100069
:1013200018208DF8130003208DF8120004A94F48EF
:10133000FFF792FA4FF48060ADF8100004208DF8AA
:10134000130004A94948FFF787FA4FF4E1300090F1
:101350000020ADF80400ADF80600ADF80800ADF8C7
:101360000C000C20ADF80A0069464148FFF7D7FD94
:1013700001213F48FFF75FFE05B000BD70B5044690
:101380000D4629462046FFF7C3FE00BF80212046B8
:10139000FFF72CFF0028F9D070BD2DE9F04107467A
:1013A0000D461646002405E0295D3846FFF7E6FFA6
:1013B000601CC4B2B442F7DB00BF40213846FFF7DF
:1013C00015FF0028F9D0BDE8F08170B506460C463F
:1013D000002500BF615D3046FFF7D0FF6D1C605DEA
:1013E0000028F7D100BF40213046FFF7FFFE00285C
:1013F000F9D070BD2DE9F04105460C46260AE7B24A
:1014000031462846FFF784FE00BF80212846FFF7BB
:10141000EDFE0028F9D039462846FFF779FE00BFD7
:1014200080212846FFF7E2FE0028F9D0BDE8F081D0
:1014300070B504460D46E1B20D48FFF769FE00BFE6
:1014400080210B48FFF7D2FE0028F9D0204670BD5E
:1014500010B5044600BF20210548FFF7C7FE00284D
:10146000F9D00348FFF758FE10BD00000008014006
:101470000038014000B587B001210420FFF7A8FC27
:1014800001214802FFF7A4FC4FF40040FFF704FCE1
:101490000220ADF8180000208DF81B0006A93B487B
:1014A000FFF7DAF93A48FEF74FFF002001908DF878
:1014B00008008DF809004FF460200390002004908C
:1014C00001208DF8140001A93148FEF764FF0121C5
:1014D0002F48FEF78CFF2E48FEF7ABFF00BF2C48CD
:1014E000FEF7ACFF0028FAD12948FEF7B1FF00BF94
:1014F0002748FEF7B2FF0028FAD107B000BD10B5AB
:1015000004460723012221462148FEF7DCFF012182
:101510001F48FEF7ACFF00BF02211D48FFF718F976
:101520000028F9D01A48FFF735F810BD2DE9F0472B
:1015300007460C460025002608E03846FFF7DFFF87
:101540000544012000F09EF8701CC6B2A642F4DBF0
:10155000B5FBF4F8404600F0ABF90E4908600846C8
:1015600001680D4800F02EF982460C4900F062F93E
:1015700081460B4900F02CF9804600F09EF909499C
:1015800008600846008880B2BDE8F0870008014086
:10159000002401402C00002000C07F4500C04D45C4
:1015A0000000C8423000002030B50146B1F1807F14
:1015B00001D3012030BD21F07F40401E4FF0E022DA
:1015C000506150170F22002807DA13071D0E3E4BFB
:1015D00000F00F04241F1D5503E013071C0E3B4BA6
:1015E0001C5400BF00204FF0E022906107201061E2
:1015F0000020DFE710B5364800683649B0FBF1F44B
:101600002046FFF7D1FF08B100BFFEE710BD01B5CE
:101610003149009808604FF0E020006940F0010077
:101620004FF0E021086100BF2B4800680028FBD183
:1016300008BD2948006820B127480068401E264997
:101640000860704731B5224800682449B0FBF1F5C5
:101650002846FFF7A9FF002408E000BF4FF0E02074
:10166000006900F480300028F8D0641C009884429F
:10167000F3D34FF0E020006920F001004FF0E021AB
:10168000086138BD31B5124800684FF47A71B0FB7B
:10169000F1F52846FFF788FF002408E000BF4FF06F
:1016A000E020006900F480300028F8D0641C009825
:1016B0008442F3D34FF0E020006920F001004FF0A6
:1016C000E021086138BD000018ED00E000E400E012
:1016D00000000020A08601003400002040420F00DE
:1016E00008B501210420FFF773FB0120ADF80000CD
:1016F00004208DF8030069460848FFF7ADF808BDDF
:1017000010B501210548FFF73AF9012804D16420FA
:10171000FFF7B8FF012010BD0020FCE700080140E2
:10172000F0B480EA0102D40F4200B2EB410F02D2C2
:101730000246084611464A0042D0C30DDDB2C1F34D
:10174000C752AD1A202D35DAC1F3160141F400025B
:1017500004B15242C5F1200602FA06F12A411044B2
:10176000B3EBD05F23D0C4B1012DA0EBC35009DC93
:10177000F0BC4FF0004202EAC352DBB200F50000B9
:1017800000F0D3B8400000F1807000EBC350A0F12E
:10179000807040EAD170490009E0490841EAC0710F
:1017A000A0EBC35000F50000400800EBC350F0BCB4
:1017B00000F0B2B86142012202EB4101001BF6E7E2
:1017C000F0BC704781F00041AAE780F00040A7E735
:1017D00080EA010210B502F00043400022D04A0026
:1017E0001FD0010E01EB1261C0F35600C2F3560286
:1017F00040F4000042F40002A0FB022000047F3904
:10180000140400D0401C50EA124001D44000491E8C
:10181000C2B20C0604EBD010401C4008802A02D053
:1018200003E0002010BD20F00100002900DA0020B4
:10183000184310BD30B480EA010202F0004530F0D8
:10184000004221F0004013D090B1C30DD40DC2F37B
:101850001601C0F31600E41A41F4000140F400023E
:101860007D34914201D3641C00E04900002C02DA6F
:1018700030BC002070474FF400000023914201D398
:10188000891A034340084FEA4101F7D151B191420F
:1018900002D14FF0004105E002D24FF0010101E01A
:1018A0006FF0010103EBC450284430BC00F034B8A1
:1018B00096230022114600F038B800F0004220F0D4
:1018C0000040C10DC0F3160040F400007F2901DA8A
:1018D00000207047962903DCC1F19601C84001E061
:1018E00096398840002AF4D04042704730B50B4604
:1018F000014600202022012409E021FA02F59D4240
:1019000005D303FA02F5491B04FA02F52844151E13
:10191000A2F10102F1DC30BD0029A8BF7047401CD4
:10192000490008BF20F00100704710B4B0FA80FCF5
:1019300000FA0CF050EA010404BF10BC704749B132
:10194000CCF1200421FA04F411FA0CF118BF0121A2
:1019500021430843A3EB0C01CB1D4FEA00614FEA82
:10196000102042BF002010BC704700EBC350104451
:101970000029A4BF10BC7047401C490008BF20F0DC
:10198000010010BC70470000064C074D06E0E068FF
:1019900040F0010394E8070098471034AC42F6D3B6
:1019A000FEF7CAFB401B0008601B00080FB4054B84
:1019B00010B503A9044A029800F018F810BC5DF8AD
:1019C00014FB0000311400083800002002E008C8B1
:1019D000121F08C1002AFAD170477047002001E0A9
:1019E00001C1121F002AFBD1704700002DE9FF4FF3
:1019F00089B09B460446002506E025280BD05A46B0
:101A00000B999047641C6D1C20780028F5D10DB00F
:101A10002846BDE8F08F0027B8460122474900E07C
:101A2000074314F8013F203B02FA03F00842F7D1C4
:101A300020782E2819D114F8010F47F004072A281E
:101A40000ED06FF02F022078A0F1300109290CD8B8
:101A500008EB880102EB410100EB0108641CF2E78E
:101A60000A98641C50F8048B0A9020780028CED085
:101A7000642808D0692806D075281ED05A460B99CC
:101A800090476D1C58E00A994FF00A0901C90A9164
:101A9000002802DA40422D2102E0390504D52B212D
:101AA0008DF82010012103E0F90704D02021F7E789
:101AB0008A4608AE0DE00021FAE70A994FF00A09BC
:101AC00001C90A91F7E74946FFF710FF303106F8E0
:101AD000011D0028F7D1ADEB060000F120097807C1
:101AE00001D44FF00108C84502DDA8EB090000E071
:101AF00000208046002706E008A85A46C05D0B99E2
:101B000090476D1C7F1C5745F6DB04E030205A4699
:101B10000B9990476D1CB8F10001A8F10108F5DCA4
:101B200005E016F8010B5A460B9990476D1CB9F168
:101B30000001A9F10109F4DC641C65E70928010032
:101B4000601B0008000000203C000000CC190008C9
:101B50009C1B00083C00002004040000DC19000865
:101B600000A24A040000000000000000010203047B
:101B70000607080900000000010203040102030433
:101B80000607080902040608000000000000000023
:0C1B900000000000000000000000000049
:0400000508000131BD
:00000001FF
